:020000040800F2
:100000002007002045010008B90400086D0300081E
:10001000B50400084D020008030C000800000000B1
:100020000000000000000000000000005906000869
:100030005102000800000000410500086D0700089B
:100040005F0100085F0100085F0100085F01000810
:100050005F0100085F0100085F0100085F01000800
:100060005F0100085F0100085F0100085F010008F0
:100070005F0100085F0100085F0100085F010008E0
:100080005F0100085F0100085F0100085F010008D0
:100090005F0100085F0100085F0100085F010008C0
:1000A0005F0100085F0100085F0100085F010008B0
:1000B0005F0100085F0100085F0100085F010008A0
:1000C0005F0100085F0100085F0100085F01000890
:1000D0005F0100080D0800085F010008F90800082A
:1000E0005F0100085F0100085F0100085F01000870
:1000F0005F0100085F0100085F0100085F01000860
:100100005F0100085F0100085F0100085F0100084F
:100110005F0100085F0100085F0100085F0100083F
:100120005F0100085F0100085F0100085F0100082F
:10013000DFF80CD000F078F8004800479D10000868
:10014000200700200648804706480047FEE7FEE7F4
:10015000FEE7FEE7FEE7FEE7FEE7FEE7FEE7FEE777
:10016000AD0700083101000840EA01039B0703D0F6
:1001700009E008C9121F08C0042AFAD203E011F8E6
:10018000013B00F8013B521EF9D27047D2B201E0A8
:1001900000F8012B491EFBD270470022F6E710B58C
:1001A00013460A4604461946FFF7F0FF204610BDE5
:1001B000421E12F8013F002BFBD111F8013B02F85F
:1001C000013B002BF9D1704710B5002200E0521C12
:1001D000835C8C5CA34201D1002BF8D1D8B2E1B290
:1001E000401A10BD70B50F4D00B92868002412E008
:1001F0000A4602E09E4203D0521C1378002BF9D12C
:10020000DAB2224305D02BB124B1002100F8011B42
:1002100004E00446401C0678002EE9D12860204600
:1002200070BD000034000020064C074D06E0E06879
:1002300040F0010394E8070098471034AC42F6D32D
:10024000FFF77AFF101200083012000800BFFEE727
:1002500070472DE9F04102460025002600200023CA
:100260000024002791F803C00CF00F0591F803C09B
:100270000CF0100CBCF1000F03D091F802C04CEA56
:10028000050591F800C0BCF1000F31D014680020C2
:100290002BE04FF0010C0CFA00F3B1F800C00CEAAF
:1002A00003069E4220D183004FF00F0C0CFA03F797
:1002B000BC4305FA03FC4CEA040491F803C0BCF10A
:1002C000280F06D14FF0010C0CFA00FCC2F814C044
:1002D0000AE091F803C0BCF1480F05D14FF0010CC2
:1002E0000CFA00FCC2F810C0401C0828D1D31460DE
:1002F000B1F800C0BCF1FF0F34DD546800202EE0DF
:1003000000F1080C4FF0010808FA0CF3B1F800C036
:100310000CEA03069E4221D183004FF00F0C0CFA29
:1003200003F7BC4305FA03FC4CEA040491F803C04C
:10033000BCF1280F05D100F1080C08FA0CF8C2F83E
:10034000148091F803C0BCF1480F07D100F1080CEC
:100350004FF0010808FA0CF8C2F81080401C082879
:10036000CED35460BDE8F0810161704700BFFEE765
:1003700070B5B2B004460E461546C8216846FFF770
:100380000CFF20A16846FFF713FF28480168684664
:10039000FFF70EFF26A16846FFF70AFF274801680E
:1003A0006846FFF705FF26A16846FFF701FF25A174
:1003B0006846FFF7FDFE21466846FFF7F9FE24A1D7
:1003C0006846FFF7F5FE31466846FFF7F1FE24A1C7
:1003D0006846FFF7EDFE29466846FFF7E9FE24A1CF
:1003E0006846FFF7E5FE694623A000F027FC694652
:1003F000224800F008FCC8216846FFF7CEFE32B064
:1004000070BD00007C337C327C687474703A2F2F8E
:100410006D616B65722E69667474742E636F6D2FD7
:10042000747269676765722F000000001400002075
:100430002F776974682F6B65792F000018000020F2
:100440002C0000007B2276616C756531223A220017
:10045000222C2276616C756532223A22000000005F
:10046000222C2276616C756533223A22000000004E
:1004700022207D0D7C0D000025730A0000480040FD
:1004800008B50121102000F06DF8FF20ADF8000044
:1004900010208DF8030003208DF8020069460448FF
:1004A000FFF7D7FEFF210248FFF75EFF08BD0000FF
:1004B0000010014000BFFEE77047000070B500214A
:1004C00000230F22C47804B3154C246804F4E064BC
:1004D000C4F5E064210AC1F10403CA40447804FA77
:1004E00003F184781440214309010E4C0678A1558C
:1004F000047804F01F050124AC4005786D11AD00AF
:1005000005F1E025C5F8004109E0047804F01F0575
:100510000124AC40044D0678761145F8264070BDA4
:100520000CED00E000E400E080E100E0024901435E
:10053000024A1160704700000000FA050CED00E06F
:100540007047000029B1064AD2690243044BDA61C0
:1005500004E0034AD2698243014BDA61704700002C
:100560000010024029B1064A92690243044B9A6185
:1005700004E0034A92698243014B9A61704700008C
:100580000010024030B500210022002400232D4D30
:100590006D6805F00C0121B1042905D0082923D18B
:1005A00005E0294D056022E0274D05601FE0254D3F
:1005B0006D6805F47012234D6D6805F480340225D2
:1005C00005EB92421CB9214D554305600BE01D4DD2
:1005D0006D6805F400351DB11C4D5543056002E002
:1005E000194D5543056002E0174D056000BF00BF7F
:1005F000144D6D6805F0F0010909154D6B5C056837
:10060000DD4045600F4D6D6805F4E061090A104D4D
:100610006B5C4568DD4085600A4D6D6805F460518E
:10062000C90A0B4D6B5C4568DD40C560054D6D68C2
:1006300005F44041890B074D6B5CC568B5FBF3F5CC
:10064000056130BD0010024000127A0000093D0033
:100650000000002010000020704710B500F002F8E4
:1006600010BD00000CB500200190009033480068D8
:1006700040F480303149086000BF3048006800F421
:10068000003000900198401C0190009818B9019822
:10069000B0F5A06FF1D12948006800F4003010B126
:1006A0000120009001E0002000900098012843D133
:1006B0002348006840F0100021490860084600689F
:1006C00020F0030008600846006840F0020008605F
:1006D0001A4840681949486008464068486008461A
:1006E000406840F4806048600846406820F47C1010
:1006F00048600846406840F4E810486008460068D2
:1007000040F08070086000BF0C48006800F0007086
:100710000028F9D00948406820F0030007494860E4
:100720000846406840F00200486000BF0348406847
:1007300000F00C000828F9D10CBD000000100240A8
:1007400000200240042808D14FF0E021096941F05F
:1007500004014FF0E022116107E04FF0E021096948
:1007600021F004014FF0E022116170477047000052
:1007700010B504466FF00400FFF7E4FFE11704EB47
:100780005171C1F3C701074A11701046007800EBA0
:100790004001C1EBC0104FF6FF7101EAC0000249F1
:1007A000088010BD240000202600002010B513484A
:1007B000006840F00100114908600846406810498F
:1007C00008400E494860084600680E4908400B4939
:1007D00008600846006820F48020086008464068E9
:1007E00020F4FE0048604FF41F008860FFF735FFDB
:1007F0004FF000600449086010BD00000010024086
:100800000000FFF8FFFFF6FE08ED00E010B540F233
:1008100025510C4800F030F970B10A4800F0E8F9B1
:10082000C4B22146074800F0E8F900BF402105485E
:1008300000F015F90128F9D14021024800F0FAF83A
:1008400010BD00000038014010B586B004460121FB
:100850000420FFF787FE01218803FFF783FE4FF492
:100860000070ADF8140003208DF8160018208DF8E4
:10087000170005A91E48FFF7ECFC4FF48060ADF8A7
:10088000140004208DF8170005A91948FFF7E1FCB2
:1008900001940020ADF80800ADF80A00ADF80C0096
:1008A000ADF810000C20ADF80E0001A9114800F0C1
:1008B00033F901210F4800F0C6F840210D4800F03F
:1008C000B9F8012240F225510A4800F0FFF825202E
:1008D0008DF8000003208DF801008DF80200012042
:1008E0008DF803006846FFF7E9FD06B010BD000073
:1008F000000801400038014010B540F225511E4863
:1009000000F0BAF888B31C4800F072F91B491C4A81
:100910001278885408461A490978405C0D2809D194
:10092000002217480178154800F09EFA002014496B
:10093000087010BD12480078642801D1012000E041
:1009400000200E490E4A1278895C0D2901D0012140
:1009500000E00021084018B1002009490870E8E7CC
:1009600007480078401C064908704021054800F0FF
:1009700061F800BFDDE7000000480040580000209B
:10098000290000200038014010B586B0044601213E
:100990000820FFF7E7FD01218804FFF7D3FD4FF49E
:1009A0008060ADF8140003208DF8160018208DF833
:1009B000170005A91D48FFF74CFC4FF40060ADF887
:1009C000140004208DF8170005A91848FFF741FC12
:1009D00001940020ADF80800ADF80A00ADF80C0055
:1009E000ADF810000C20ADF80E0001A9104800F081
:1009F00093F801210E4800F026F840210C4800F041
:100A000019F8012240F22551094800F05FF827202B
:100A10008DF8000001208DF801008DF802008DF89E
:100A200003006846FFF74AFD06B010BD000C014008
:100A30000048004001F40072B2F5007F00D100BF11
:100A4000CA430280704721B1828942F400528281F8
:100A500004E082894DF6FF731A4082817047024696
:100A60000020B1F5007F00D100BF13880B400BB10F
:100A7000012000E00020704770B5024600240023EA
:100A80000025002040F66A16B14200D100BFC1F334
:100A9000421501F01F03012606FA03F3012D02D1CE
:100AA0009689334006E0022D02D1168A334001E0D8
:100AB000968A33400C12012606FA04F41688344054
:100AC00013B10CB1012000E0002070BDF0B5034669
:100AD000002400260025002040F66A17B94200D104
:100AE00000BF1846C1F3421401F01F06012707FAA0
:100AF00006F5012C01D10C3004E0022C01D110309C
:100B000000E014301AB107682F43076002E007685D
:100B1000AF430760F0BD00002DE9F04786B0054601
:100B20000E460024A24600BFA1460027B08900B1AE
:100B300000BF2F462C8A4CF6FF700440F088044317
:100B40002C82AC894EF6F3100440B08831890843FA
:100B5000718908430443AC81AC8A4FF6FF400440DE
:100B6000B0890443AC8201A8FFF70CFD1F488742FF
:100B700002D1DDF810A001E0DDF80CA0A88900F496
:100B8000004040B10AEBCA0000EB0A10316849008E
:100B9000B0FBF1F807E00AEBCA0000EB0A1031687D
:100BA0008900B0FBF1F86420B8FBF0F004012009E3
:100BB000642101FB1089A88900F4004040B1322073
:100BC00000EBC900B0FBF1F000F00700044308E0BF
:100BD000322000EB09106421B0FBF1F000F00F00AF
:100BE00004432C8106B0BDE8F087000000380140C6
:100BF00001468888C0F308007047C1F3080282806C
:100C0000704700BFFEE770B505460C4612E000BF16
:100C100080212846FFF723FF0028F9D021782846B5
:100C2000FFF7EBFF00BF40212846FFF718FF002821
:100C3000F9D1641C20780028E9D170BD0FB4054BB0
:100C400010B503A9044A029800F017F810BC5DF82B
:100C500014FB0000110F00083800002002E008C853
:100C6000121F08C1002AFAD170477047002001E026
:100C700001C1121F002AFBD170472DE9F84F994698
:100C8000924688460546002706E025280AD05146A8
:100C90004A4690476D1C7F1C28780028F5D13846BD
:100CA000BDE8F88F002315F8011F18462E2915D12D
:100CB00015F8011F04232A290DD06FF02F0229787F
:100CC000A1F13004092C09D800EB800002EB4000B0
:100CD00008446D1CF3E758F8040B6D1C2A78002AB1
:100CE000DDD0632A07D0732A0FD0104651464A46FA
:100CF00090477F1C2AE018F8042B8DF80020002173
:100D00008DF801106E46012103E058F8046B4FF096
:100D1000FF315A074FF0000401D409E0641C8442FB
:100D20000BDA8C42FADB325D002AF7D105E0641C55
:100D30008C42FCDB305D0028F9D1274404E016F832
:100D4000010B51464A469047641EF8D26D1CA3E73A
:100D5000024A1060024A116070470000140000202F
:100D600018000020F0B599B005460E46642168468B
:100D7000FFF713FA012726A16846FFF719FA29465B
:100D80006846FFF715FA24A16846FFF711FA3146C5
:100D90006846FFF70DFA21A16846FFF709FA694690
:100DA0001FA0FFF74BFF69461E48FFF72CFF3221BB
:100DB0006846FFF7F2F923E000F0FCF91A480168F1
:100DC0001AA0FFF701FA58B91748416818A0FFF7B1
:100DD000FBF908B9002706E016A0FFF72FFF02E095
:100DE00014A0FFF72BFF002405E013A00E4941F8E3
:100DF0002400601CC4B2052CF7DB642000F062F80C
:100E0000012FD9D00DA0FFF719FF19B0F0BD0000D8
:100E10007C327C317C0000002C0000007C0D000046
:100E200025730A0000480040440000203200000002
:100E3000330000002E0000000000000057696669C2
:100E400020436F6E6E65637420535543434553537F
:100E50000A00000003490868096811B1014A0168E5
:100E6000116070472C0000202DE9F04106460D4628
:100E7000174605F1090000F067F904460CB9BDE812
:100E8000F081002020600D48006820B90B48046004
:100E90000B48046004E00A480068046008480460E5
:100EA000657100202071691CA01DFFF776F92A46A4
:100EB0003146A01DFFF758F900BFE0E72C000020E5
:100EC000300000200146114A12884A434FF0E023C7
:100ED0005A6100229A611A46126942F001021A61AF
:100EE00000BF4FF0E022106900F001021AB100F4D7
:100EF0008032002AF5D04FF0E022126922F0010280
:100F00004FF0E0231A6100229A617047260000200A
:100F100070B504460D46E1B20548FFF76EFE00BF0E
:100F200080210348FFF79BFD0028F9D0204670BDC3
:100F30000038014010B5002821D0114B0022001FBD
:100F4000196803E0814203D80A4649680029F9D1AB
:100F500052B11368841A9C4204D10068184410608E
:100F6000104602E0506000E0186039B102680B1AC8
:100F7000934203D10B681A4402604968416010BD76
:100F80003C00002070B5012600255AE000F012F95F
:100F90002D4801682DA0FFF717F990B92A488168FC
:100FA0002BA0FFF711F900283CD100262648C16884
:100FB00028A0FFF743FE2448016929A0FFF73EFE61
:100FC00030E02148016829A0FFF7FEF8002823D16E
:100FD0001D48416826A0FFF7F7F848B9002625A06C
:100FE000FFF72CFE184881681DA0FFF727FE19E0C7
:100FF0001548416824A0FFF7E7F818B922A0FFF7C9
:101000001DFE0FE01048416820A0FFF7DDF848B949
:101010001EA0FFF713FE05E0642D03D11CA0FFF70F
:101020000DFE0026002405E01BA0074941F824001E
:10103000601CC4B2052CF7DB681CC5B26420FFF746
:1010400041FF012EA2D070BD4400002034000000FA
:1010500035000000746F7069633A25730A00000060
:101060006D6173736167653A25730A003300000090
:101070003230300053656E7420737563636573732B
:1010800066756C6C790A00002D310000310000009B
:1010900074696D65206F757400000000002448209D
:1010A000FFF766FB4FF4A060FFF740FAFFF7E8F99F
:1010B0004FF41650FFF7C8FB4FF41650FFF764FCCF
:1010C00012A115A0FFF74EFE15A11BA0FFF740FED1
:1010D0001BE01AA219A11AA0FFF74AF904F10A00AD
:1010E000C4B2142094FBF0F100FB114040B900247D
:1010F0001448006808B9012000E000201149086088
:101100006420FFF7DFFEFFF73DFFE2E731323334C3
:101110003536373800000000686974657374000064
:1011200064747066546C5533577161387930485225
:10113000683737785845000042424200373800008F
:101140003130300080012242F0B50B30154D20F0D7
:1011500007010024144A0FE003688B420BD38B4233
:1011600005D95E1A43184768C3E9006700E0436881
:10117000136002C004E0021D10680028ECD1204674
:10118000002802D1286808B10020F0BD064A0748AF
:101190001060074A121A22F00702C0E90024012059
:1011A0002860D7E7400000203C00002024010020F8
:1011B0002003002010B50024FFF74CFE1149086001
:1011C00008460068C0B110A10E480068801DFFF7F6
:1011D00009F80E4941F8240009E00BA10020FFF7AF
:1011E00001F8611CC9B20C46084A42F821000748C0
:1011F00050F824000028F0D102480068FFF79AFE5A
:1012000010BD0000200000207C00000044000020F1
:101210003012000800000020440000005C0C0008B0
:101220007412000844000020DC0600006C0C00086A
:10123000000000000102030401020304060708097C
:10124000020406080000000000000000000000008A
:10125000000000000000000000000000000000008E
:10126000000000000000000000000000000000007E
:04127000000000007A
:0400000508000131BD
:00000001FF
